:1000000051C100006DC100006BC1000069C100005A
:1000100067C1000065C1000063C1000061C100004C
:100020005FC100000DC200005AC7000059C10000A6
:1000300057C1000055C1000053C1000051C100006C
:100040004FC100004DC100004BC1000049C100007C
:1000500047C1000045C1000043C1000041C100008C
:100060003FC100003DC100003BC1000039C100009C
:1000700037C1000035C1000033C1000031C10000AC
:100080002FC100002DC100002BC1000029C10000BC
:1000900027C1000025C10000281A080F0612100809
:1000A0002C17122C0B0C072C0E081C05120415071C
:1000B0002C070810122C0411072C0612110A150423
:1000C00017180F04170C1211162C0912152C1608EC
:1000D0000F0806170C110A2C170B082C04172627DB
:1000E0001816051B1B1B2C100C06151206121117D7
:1000F00015120F0F08152C0904100C0F1C37282897
:10010000170B082C041726271816051B1B1B2C0C75
:10011000162C05041608072C12112C170B082C049A
:1001200019152C061215082C1A0C170B2C170B0876
:100130002C09120F0F121A0C110A2C090804171897
:1001400015081628562C1816052C12170A2C285696
:100150002C0F121A3809180F0F2C16130808072C29
:100160000612111715120F0F08152C1A0C170B2C4D
:10017000242C08110713120C11171628562C1813CB
:100180002C17122C1E1F252C0E051C1708162C12BE
:100190001156060B0C132C090F04160B2C1008100B
:1001A00012151C28562C1816052C051212170F12A2
:1001B0000407081528562C180415173816130C3880
:1001C0002C171A0C282C2C0411072C101215083788
:1001D00037372808110D121C2C1C1218152C170C5F
:1001E00010082C1A0C170B2C041710080F2C1315C1
:1001F00012071806171637373712010002000000E1
:1002000040EB031720001001020001090222000147
:100210000100A032090400000103010100092111BD
:10022000010001223B00070581030800020C034185
:100230000054004D0045004C002C03410056005274
:1002400000200055005300420020004B004500599B
:100250000042004F0041005200440020004400458D
:10026000004D004F000403090405010906A1010522
:100270000719E029E715002501750195088102811C
:100280000119002965150025657508950681000589
:10029000081901290515002501750195059102959B
:1002A000039101C011241FBECFEFD0E2DEBFCDBF4E
:1002B00081E011E0A0E0B1E0E6EAF0E100E00BBF90
:1002C00002C007900D92A030B107D9F711E0A0E06D
:1002D000B1E001C01D92AB31B107E1F701D1E1C638
:1002E0008FCE8FB7F89497EF94BF98E10FB6F8943C
:1002F00090936000109260000FBE87FF01C0789459
:10030000089510920F0110920E0110920D0184B108
:100310008F7184B985B1806E85B98DB18F7C8DB9AF
:100320008EB180638EB910920B01089590910D01EA
:10033000992319F09130D1F512C01D9937C081E091
:1003400080930D0188E990E0909308018093070164
:1003500081E691E090930A0180930901089520912C
:10036000090130910A0121153105F1F080910E014A
:100370008823E1F480910F018823C1F4E091070103
:10038000F09108013196F0930801E093070131974D
:10039000E491E0930C012150304030930A01209306
:1003A000090190930E01089510920D010895809116
:1003B0001701882309F443C080910E01882309F4B2
:1003C000B5CF91E09093E9008091E80085FF37C0B8
:1003D00080910F018823D1F490930F011092F100C6
:1003E0001092F10080910C018093F1001092F100C5
:1003F0001092F1001092F1001092F1001092F100B1
:100400008091E8008F778093E800089510920E01A4
:1004100010920F011092F1001092F1001092F10071
:100420001092F1001092F1001092F1001092F10080
:100430001092F1008091E8008F778093E800089592
:100440001F920F920FB60F920BB60F9211242F939B
:100450003F934F935F936F937F938F939F93AF934C
:10046000BF93EF93FF93E8E6F0E080818E7F808377
:10047000D89AEBE6F0E080818F718083A2D2FF9161
:10048000EF91BF91AF919F918F917F916F915F910C
:100490004F913F912F910F900BBE0F900FBE0F9079
:1004A0001F90189580910301813059F480916B0061
:1004B000806E80936B00D89A8091680081608093F1
:1004C0006800789400C013BE83B7856083BF8895A9
:1004D0000895D9D56CDFFDCFD8D513CFFDDFF9CF87
:1004E00000DFFCDF80E090E008957894E8EDF0E034
:1004F00080818F76808380818069808380818F7BFB
:100500008083789408958EE089BD09B400FEFDCF04
:10051000F8948091D8008F7D8093D80080D080910E
:10052000E0008E7F8093E00078948091E20081600B
:100530008093E2008091E20088608093E200089559
:100540008091D90080FF14C080910001882381F43C
:1005500081E08093000110920301D3DE80910501B8
:100560009091060182609093060180930501CBDF94
:100570008091D90080FD18C034C010920001109203
:100580001701809105019091060184609093060106
:10059000809305018091E00081608093E00080916C
:1005A000D80080628093D800809105019091060167
:1005B00090FF10C080910501909106019E7F90935D
:1005C00006018093050181E08093EA001092EA0021
:1005D000109217011092E9008091E80083FF06C095
:1005E00009C2809100018130F9F6C7CF089590913A
:1005F000EB0091609093EB008093EC008091ED0014
:100600008270862B8093ED008091ED008260809354
:10061000ED008091EE00881F8827881F0895809143
:10062000D8008F7B8093D8008091D90081FF0BC0C8
:100630001092E9008091EB0080FD05C01092E90066
:1006400082E060E3D4CF80E0089580E00895892BB4
:1006500091F481E08093E9008091EB0080618093C8
:10066000EB0082E08093EA001092EA008091EB00B8
:1006700088608093EB0008958330F1F4613059F085
:10068000613018F06230C1F40CC084E0809318012E
:1006900085E692E00BC08CE0809318018DE292E039
:1006A00005C08CE28093180189E392E090931A01CF
:1006B0008093190181E0089580E00895DF93CF933E
:1006C00000D000D0CDB7DEB78091F1008B83809150
:1006D000F1008C838BE38093180189E692E090937C
:1006E0001A01809319018091F10089838091F100B2
:1006F0008A838091E800877F8093E80089819A81CE
:100700008C33910528F04091180129E632E01CC095
:1007100080931801F8CF8091E80080FFFCCFF901A9
:1007200090E00AC0542F5150903449F09F5F84915B
:100730008093F1003196452F9F01442399F78091D2
:10074000E8008E7F8093E800442359F08091E80010
:1007500082FFE1CF30931A012093190140931801D1
:1007600006C030931A01209319011092180180914C
:10077000E80082FFFCCF8091E8008B7F8093E80047
:100780008091E8008F778093E8000F900F900F9092
:100790000F90CF91DF9108958091E800877F80933B
:1007A000E8008091E8008E7F8093E8008091E80067
:1007B00082FFFCCF8091E8008B7F8093E8008091DE
:1007C000E8008F778093E8008091E8008E7F809327
:1007D000E8000895DF93CF9300D0CDB7DEB78091C6
:1007E000F10089838091F1008A838091E800877FFE
:1007F0008093E800609302018091E8008E7F8093EF
:10080000E8008091E80080FFFCCF0F900F90CF911F
:10081000DF910895DF93CF9300D000D0CDB7DEB73E
:100820008091F1008B838091F1008C838091F100A5
:1008300089838091F1008A838091E800877F80938B
:10084000E80089819A81892B49F080910201809387
:10085000F1008091E8008E7F8093E8008091E800AD
:1008600082FFFCCF8091E8008B7F8093E80080912D
:10087000E8008F778093E8000F900F900F900F9013
:10088000CF91DF910895DF93CF9300D000D0CDB703
:10089000DEB78091F1008B838091F1008C8389E039
:1008A000809318018DE192E090931A0180931901D1
:1008B0008091F10089838091F1008A838091E80022
:1008C000877F8093E80089819A818A30910528F09A
:1008D000409118012DE132E01CC080931801F8CF3F
:1008E0008091E80080FFFCCFF90190E00AC0542F0E
:1008F0005150903449F09F5F84918093F10031967C
:10090000452F9F01442399F78091E8008E7F8093C3
:10091000E800442359F08091E80082FFE1CF309352
:100920001A01209319014093180106C030931A014F
:1009300020931901109218018091E80082FFFCCFEA
:100940008091E8008B7F8093E8008091E8008F77AA
:100950008093E8000F900F900F900F90CF91DF9150
:1009600008952091F1009091F100813859F466309A
:1009700001F5913219F09232E1F402C084DF17C020
:100980009DDE15C0813269F4693019F06A3089F44E
:1009900004C0923071F400DF0AC0822F692F1ADF81
:1009A00006C0813A31F4623021F4822F33DF81E0D6
:1009B000089580E0089581E08093E90081EC60E093
:1009C00016CE09B400FC05C08EE089BD09B400FE56
:1009D000FDCF8091D8008F7D8093D8008091030156
:1009E000813039F48091E00082608093E0001092C1
:1009F000030108950F931F93DF93CF9300D0CDB7DA
:100A0000DEB78091E8008B7F8093E8001091F100C1
:100A10000091F1000630F9F0073068F4013009F474
:100A200032C1013008F4B7C1033009F476C1053092
:100A300009F03CC2ECC0093009F40EC10A3020F4C0
:100A4000083009F033C2B9C00A3009F4DFC10B30F5
:100A500009F02CC204C2103809F028C26091F100DC
:100A60008091F100813019F0823089F406C082E172
:100A70008093180189EF91E005C082E2809318010C
:100A80008BE092E090931A018093190104C0F4DD89
:100A9000882309F40BC28091F1008091F1008091CC
:100AA000F10089838091F1008A838091E800877F3B
:100AB0008093E80029813A818091180190E08217A3
:100AC000930730F48F739070892B21F461E003C099
:100AD0002093180160E08091E8008F7E8093E80009
:100AE0003091190140911A01209118012DC0809177
:100AF000E80084FF05C0832F942FFC0190E013C011
:100B00008091D90080FFF7CF8091E80080FFEFCF80
:100B1000F2CF522F5150903451F09F5F84918093C7
:100B2000F1003196252F3E2F4F2F222391F78091F0
:100B3000E80084FD16C08091D90080FF12C080912A
:100B4000E8008E7F8093E800222339F43093190166
:100B500040931A01109218010AC08091E80084FFA6
:100B6000D3CF3093190140931A01209318016130BB
:100B7000B9F48091E80084FF05C012C08091D900CB
:100B800080FF04C08091E80080FFF8CF8091E800EA
:100B90008E7F8093E80004C08091D90080FF04C05C
:100BA0008091E80084FFF8CF8091E8008F7E8093E9
:100BB000E8008091E8008B7F27C0103809F076C1EB
:100BC0008091E800877F8093E800809117018093EF
:100BD000F1008091E8008E7F8093E8008091E8002A
:100BE0008F778093E80004C08091D90080FF04C013
:100BF0008091E80082FFF8CF8091E8008B7F80939E
:100C0000E8008091E8008F778093E80061C11123AC
:100C100009F04CC19091F1008091E3009F778078BA
:100C2000982B9093E3008091E800877F8093E80001
:100C30008091E8008E7F8093E80004C08091D90005
:100C400080FF04C08091E80080FFF8CF8091E3002E
:100C500080688093E3003CC1112309F027C1909183
:100C6000F100923008F022C18091E800877F8093E4
:100C7000E800909317018091E8008E7F8093E80050
:100C8000892F99DE25C1112321F0123009F00EC100
:100C90000DC08091F100813009F008C180910401FC
:100CA0008D7F80930401109203012EC08091F1008A
:100CB0009091F100882309F0F9C0E091F100EF77FD
:100CC000E093E9008091EB0080FF55C0EE23B1F086
:100CD0008091EB0080618093EB0081E090E00E2E2C
:100CE00002C0880F991F0A94E2F78093EA001092DD
:100CF000EA008091EB0088608093EB001092E9009D
:100D0000F0E0E05FFE4F10828091E800877F8093E3
:100D1000E8008091E8008E7F77CF112321F0123018
:100D200009F0C4C00DC09091F100913009F0BEC02F
:100D30008091040182608093040190930301E4CFC9
:100D40008091F1009091F100882309F0AFC0E0910B
:100D5000F100EF7751F48091EB0080628093EB001B
:100D60008091E800877F8093E800E093E90080911C
:100D7000EB0080FD03C01092E90098C08091EB0069
:100D800080628093EB001092E900F0E0E05FFE4F9C
:100D900081E08083B9CF8091F1008091F100E091F2
:100DA000F100113869F0123899F0103809F07EC05E
:100DB0008091E800877F8093E8008091040113C050
:100DC0008091E800877F8093E8001092F1000DC0C9
:100DD0008091E800877F8093E800F0E0EF77F07083
:100DE000E05FFE4F80818093F1001092F1008091CE
:100DF000E8008E7F8093E80004C08091D90080FFD6
:100E0000FBCE8091E80082FFF8CFF6CE113809F0D2
:100E10004DC08091F1008091F1009091F100998393
:100E20009091F1009A83882309F040C08091E800F6
:100E3000877F8093E80089819A8107DC8093F100A5
:100E40008091E8008E7F8093E80004C08091D900F3
:100E500080FFD2CE8091E80082FFF8CFCDCE113056
:100E600029F56091F1008091F1009091F100998352
:100E70009091F1009A838823C9F48091E800877FDC
:100E80008093E80089819A81E2DB1092E9008091E9
:100E9000E8008E7F8093E80004C08091D90080FF35
:100EA00017C08091E80080FFF8CF12C0812F602F1B
:100EB00058DD882369F48091EB0080628093EB0019
:100EC0008091E800877F8093E80081E080931001A3
:100ED0000F900F90CF91DF911F910F9108951F9266
:100EE0000F920FB60F920BB60F9211242F933F93D0
:100EF0004F935F936F937F938F939F93AF93BF9322
:100F0000EF93FF938091E10082FF07C08091E200A0
:100F100082FF03C08BEF8093E1008091E10080FFAE
:100F200041C08091E20080FF3DC08091030181308B
:100F3000D9F4809117018823B9F08091E2008E7F67
:100F40008093E2008FEE8093E1008091E200806167
:100F50008093E20089B58D7F89BD19BC8091D8004E
:100F600080628093D8001DC08FEE8093E100809155
:100F7000050190910601806290930601809305011E
:100F80008EEF8093E1008091E20080618093E20027
:100F90008091D80080628093D80089B58D7F89BD0B
:100FA00019BC80DA8091E10084FF27C08091E200C3
:100FB00084FF23C009B400FC05C08EE089BD09B4DC
:100FC00000FEFDCF8091D8008F7D8093D8008FEEFA
:100FD0008093E1008091E2008F7E8093E200809117
:100FE00005019091060180649093060180930501AC
:100FF0008091E20081608093E2008091E10085FFB2
:101000001AC08091E20085FF16C08091E2008F7EB9
:101010008093E2008FED8093E1008091E2008F7D6C
:101020008093E20080910501909106018068909381
:101030000601809305018091E10083FF11C080913A
:10104000E20083FF0DC087EF8093E100E8DA809132
:10105000050190910601916090930601809305012E
:10106000FF91EF91BF91AF919F918F917F916F9180
:101070005F914F913F912F910F900BBE0F900FBE3C
:101080000F901F9018955CCA0895E7EDF0E08081FD
:101090008160808380818F7B808380818068808372
:0610A00024CAF894FFCF02
:00000001FF
